:100000000C9462000C948A000C948A000C948A0070
:100010000C948A000C948A000C948A000C948A0038
:100020000C948A000C948A000C948A000C948A0028
:100030000C948A000C948A000C948A000C948A0018
:100040000C94FD060C948A000C94CB060C94A50627
:100050000C948A000C948A000C948A000C948A00F8
:100060000C9447070C948A0000000000240027002D
:100070002A0000000000250028002B0000000008D6
:10008000000201000003040700000000000000005F
:1000900000000000230026002900040404040404D6
:1000A0000404020202020202030303030303010227
:1000B00004081020408001020408102001020408F6
:1000C0001020660811241FBECFEFD8E0DEBFCDBFE1
:1000D00011E0A0E0B1E0E4E1FAE102C005900D9288
:1000E000A835B107D9F722E0A8E5B1E001C01D921B
:1000F000A33EB207E1F710E0C2E6D0E004C02197CA
:10010000FE010E94020DC136D107C9F70E94CD0839
:100110000C94080D0C940000CF92DF92EF92FF92A6
:10012000CF93DF93B091CB02A0E08111AB2F8091F0
:10013000CC0290E0880F991FAC0140575F4FC090F0
:10014000D102D090D202E090D302F090D40230E0FD
:1001500020E0FA01C591D491E881B90190E080E0F6
:10016000EB23EA130AC02F5F3F4F6C157D058E0508
:100170009F0578F36FEF7FEFCB01DF91CF91FF9079
:10018000EF90DF90CF900895FC01538D448D252F83
:1001900030E0842F90E0821B930B541710F0CF9621
:1001A000089501970895FC01918D828D981761F053
:1001B000A28DAE0FBF2FB11D5D968C91928D9F5F6A
:1001C0009F73928F90E008958FEF9FEF0895FC0149
:1001D000918D828D981731F0828DE80FF11D858DFC
:1001E00090E008958FEF9FEF0895FC01918D228D8F
:1001F000892F90E0805C9F4F821B91098F73992714
:100200000895FC01A48DA80FB92FB11DA35ABF4FAB
:100210002C91848D90E001968F739927848FA68905
:10022000B7892C93A089B1898C91837080648C9359
:10023000938D848D981306C00288F389E02D808108
:100240008F7D80830895EF92FF920F931F93CF933A
:10025000DF93EC0181E0888F9B8D8C8D98131AC001
:10026000E889F989808185FF15C09FB7F894EE89E8
:10027000FF896083E889F989808183708064808345
:100280009FBF81E090E0DF91CF911F910F91FF9090
:10029000EF900895F62E0B8D10E00F5F1F4F0F7338
:1002A0001127E02E8C8D8E110CC00FB607FCFACFF3
:1002B000E889F989808185FFF5CFCE010E9401018F
:1002C000F1CFEB8DEC0FFD2FF11DE35AFF4FF082C4
:1002D0009FB7F8940B8FEA89FB8980818062CFCF2A
:1002E000CF93DF93EC01888D8823B9F0AA89BB896D
:1002F000E889F9898C9185FD03C0808186FD0DC058
:100300000FB607FCF7CF8C9185FFF2CF808185FF78
:10031000EDCFCE010E940101E9CFDF91CF91089589
:100320008BE192E00E94F50021E0892B09F420E0A6
:10033000822F089580E090E0892B29F00E9490019F
:1003400081110C940000089508950895AF92BF9212
:10035000CF92DF92EF92FF920F931F93CF93DF9391
:100360006C017B018B01040F151FEB015E01AE18C0
:10037000BF08C017D10759F06991D601ED91FC91E2
:100380000190F081E02DC6010995892B79F7C5010F
:10039000DF91CF911F910F91FF90EF90DF90CF9061
:1003A000BF90AF90089590E0FC01E458FF4F249176
:1003B000FC01E255FF4F3491FC01E656FF4FE491FA
:1003C000EE23C9F0222339F0233001F1A8F42130C3
:1003D00019F1223029F1F0E0EE0FFF1FEE58FF4F28
:1003E000A591B4918FB7F894EC91611126C0309526
:1003F0003E233C938FBF08952730A9F02830C9F0E1
:10040000243049F7809180008F7D03C08091800067
:100410008F7780938000DFCF84B58F7784BDDBCF6B
:1004200084B58F7DFBCF8091B0008F778093B00033
:10043000D2CF8091B0008F7DF9CF3E2BDACFCF9312
:10044000DF9390E0FC01E255FF4F249186569F4FC9
:10045000FC0184918823D1F090E0880F991FFC0162
:10046000E859FF4FA591B491FC01EE58FF4FC5919B
:10047000D491623071F49FB7F8943C91822F8095AB
:1004800083238C93E8812E2B28839FBFDF91CF910C
:1004900008958FB7F894EC912E2B2C938FBFF6CF45
:1004A0003FB7F89480910B0290910C02A0910D023D
:1004B000B0910E0226B5A89B05C02F3F19F00196FA
:1004C000A11DB11D3FBFBA2FA92F982F8827BC01AE
:1004D000CD01620F711D811D911D42E0660F771FD6
:1004E000881F991F4A95D1F708958F929F92AF92D6
:1004F000BF92CF92DF92EF92FF924B015C010E947C
:1005000050026B017C010E9450026C197D098E091A
:100510009F09683E734081059105A8F321E0821A86
:100520009108A108B10888EEC80E83E0D81EE11C2E
:10053000F11C81149104A104B10429F7FF90EF90FC
:10054000DF90CF90BF90AF909F908F900895CF9203
:10055000DF92EF92FF920F931F93CF93DF93CDB76C
:10056000DEB7C054D1400FB6F894DEBF0FBECDBF8A
:100570002FB7F8948091170290911802A091190258
:10058000B0911A022FBF4091CD025091CE026091DE
:10059000CF027091D0028C019D01041B150B260B1C
:1005A000370BB901A801403D57406105710590F432
:1005B0008091D502C05CDE4F0FB6F894DEBF0FBE4F
:1005C000CDBFDF91CF911F910F91FF90EF90DF9002
:1005D000CF9008958093CD029093CE02A093CF0246
:1005E000B093D0021092C8021092C7021092C602B5
:1005F0001092C5021092C40262E08091C9020E946A
:100600001F0261E070E080E090E00E94750261E00E
:100610008091C9020E941F0260E08091C9020E947D
:10062000D3018091CA028551823020F58BE291E19D
:100630000197F1F762E08091C9020E941F02809148
:10064000D60290E08230910538F0880F991F880F0C
:10065000991F05970197F1F7F89480E00E948C00AC
:100660006F3F7F4F8F4F9F4F61F41092D502789468
:1006700080E0A0CF64E170E080E090E00E9475022D
:10068000D9CF81E00E948C006F3F7F4F8F4F9F4FEB
:1006900061F38E010F5F1F4F6E018FEBC81A8EEF53
:1006A000D80A780180E00E948C00F7016083718392
:1006B0008283938381E00E948C00F70164837583B9
:1006C00086839783F8E0EF0EF11CEC14FD0451F7DC
:1006D000789430E020E0F801C080D180E280F3809F
:1006E0004481558166817781FFEFCF16DF06EF06E3
:1006F000FF0631F04F3F8FEF58076807780719F46E
:100700001092D502B5CFF90183E0F595E7958A956A
:10071000E1F7EC53FD4F8081880FC416D506E6063D
:10072000F70610F180832F5F3F4F085F1F4F28327D
:10073000310589F64091C8022091C4028091C5021A
:10074000280F3327331F8091C602280F311D809157
:10075000C702820F932F911D99274817190681F61A
:1007600081E08093D50226CF8160DCCF089520916F
:100770009901260F3327331F21323105ECF42091E4
:10078000E201FC0190E080E0243069F082E008950D
:10079000A09199012191AC0147585E4FA40FB52F4C
:1007A000B11D2C930196861798F380919901680FDB
:1007B0006093990180E0089581E008951092E2012C
:1007C00081E08093E1011092BC0161E082E10E942E
:1007D000D30161E083E10E94D301E9EBF0E0808185
:1007E0008E7F808380818D7F808388E48093B800B2
:1007F00085E48093BC000895CF93DF9391E09093BC
:1008000078018823B9F0C091B800D091BA008091E6
:10081000BC008A7B8093BC0060E082E10E94D3012F
:1008200060E083E10E94D3010E94DE03D093BA000E
:10083000C093B800DF91CF9108950895E09116021A
:1008400080911502E81730F4F0E0E85AFE4F8081FD
:1008500090E008958FEF9FEF089590911602809198
:1008600015022FEF3FEF981748F4E92FF0E0E85A10
:10087000FE4F208130E09F5F90931602C9010895DA
:100880008091150290911602891B990B0895CF92C1
:10089000DF92EF92FF920F931F93CF93DF937C0130
:1008A000CB018A012091E801222389F0EB016B0141
:1008B000C40ED51ECC15DD0569F06991D701ED9107
:1008C000FC910190F081E02DC7010995F3CF642FD1
:1008D0000E94B703C801DF91CF911F910F91FF9044
:1008E000EF90DF90CF900895CF93DF931F92CDB715
:1008F000DEB769832091E8012223F9F020911302E9
:10090000203258F021E030E0FC013383228390E074
:1009100080E00F90DF91CF91089580911402E82F2D
:10092000F0E0E751FE4F998190838F5F809314022E
:100930008093130281E090E0ECCF61E0CE0101965C
:100940000E94B703F7CFCF92DF92EF92FF920F93FF
:100950001F93CF93DF93FC01C48121E02093E80132
:10096000C093090210921402109213028385682B1F
:1009700088EB92E00E947404D0911302D13208F007
:1009800092C00E9450026B017C018091E2018111B2
:1009900065C082E08093E20181E08093E1018FEF06
:1009A0008093E0011092DF01D093DE01A9EEB1E067
:1009B000EEEBF1E080E0D81385C01092BD0180918C
:1009C000BD01CC0FC82BC093BD018091BC0181300B
:1009D00009F07CC01092BC010E9450026B017C01A6
:1009E0008091BD018093BB008091E4019091E5016D
:1009F000A091E601B091E701892B8A2B8B2B99F00E
:100A00000E9450020091E4011091E5012091E6015D
:100A10003091E7016C197D098E099F0906171707A8
:100A200028073907E0F18091BC0083FDD9CF85EC20
:100A30008093BC000E9450026B017C018091E20116
:100A4000823009F445C08091E0018F3F61F18091CF
:100A5000E001803241F18091E00125C08091E40104
:100A60009091E501A091E601B091E701892B8A2BD5
:100A70008B2B09F48ACF0E9450020091E40110915F
:100A8000E5012091E6013091E7016C197D098E099D
:100A90009F09061717072807390708F076CF8091B6
:100AA000E3010E94FC0310921402109213021092B0
:100AB000E801DF91CF911F910F91FF90EF90DF90B0
:100AC000CF9008959D9191938F5F75CF85EEB0CFB4
:100AD0008091E4019091E501A091E601B091E701D8
:100AE000892B8A2B8B2B09F4A9CF0E9450020091ED
:100AF000E4011091E5012091E6013091E7016C19C4
:100B00007D098E099F09061717072807390708F07E
:100B100095CFC5CF90E080E008958F929F92AF92DD
:100B2000BF920F931F93CF93DF93CDB7DEB7A197FB
:100B30000FB6F894DEBF0FBECDBF19A2423008F445
:100B40004AE08E010F5D1F4F842E912CB12CA12CF9
:100B5000A50194010E94E00CE62FB901CA01EA3018
:100B600044F5E05DD801EE938D01232B242B252B3A
:100B700079F790E080E0109769F0FD010190002086
:100B8000E9F73197AF014A1B5B0BBD0187ED92E09E
:100B90000E94A601A1960FB6F894DEBF0FBECDBF8E
:100BA000DF91CF911F910F91BF90AF909F908F9049
:100BB0000895E95CD7CFFC0101900020E9F7319757
:100BC000AF01481B590BBC0187ED92E00C94A601C4
:100BD0000F931F93CF938C01C62F0E94A3046C2FF9
:100BE0006460C8010E94A3046C2F6B7FC8010E943F
:100BF000A30483EC90E00197F1F7CF911F910F913F
:100C000008950F931F93CF93DF938C01D62FC42F9A
:100C1000607F642B0E94E80580E1D89FB001112419
:100C20006C2BC801DF91CF911F910F910C94E805B7
:100C3000CF93DF93CDB7DEB728970FB6F894DEBF1A
:100C40000FBECDBF98E0E8E0F1E0DE011196019023
:100C50000D929A95E1F79091DF02961708F46FEFE5
:100C6000262F30E0220F331F41E050E04C0F5D1F74
:100C7000240F351FF9016081680F606840E087ED3F
:100C800092E028960FB6F894DEBF0FBECDBFDF917D
:100C9000CF910C94010641E00E94010681E090E0B2
:100CA0000895CF92DF92EF92FF926B017C0141E0B9
:100CB0006DE287ED92E00E94010666277727CB015F
:100CC0006C197D098E099F094AE00E948D050196E5
:100CD000FF90EF90DF90CF90089585ED8093BC005A
:100CE0008091E4019091E501A091E601B091E701C6
:100CF0000796A11DB11D23E0B695A79597958795F9
:100D00002A95D1F72091BC0024FD03C01092E20186
:100D100008954091E4015091E5016091E6017091E0
:100D2000E701452B462B472B69F30097A105B10539
:100D300041F025E32A95F1F700000197A109B109D7
:100D4000E1CF8091E3010C94FC031F920F920FB648
:100D50000F9211242F933F934F935F936F937F9341
:100D60008F939F93AF93BF93EF93FF938BE192E0A9
:100D70000E940101FF91EF91BF91AF919F918F91DF
:100D80007F916F915F914F913F912F910F900FBE87
:100D90000F901F9018951F920F920FB60F9211246B
:100DA0002F938F939F93EF93FF93E0912B02F091FA
:100DB0002C028081E0913102F091320282FD1BC051
:100DC0009081809134028F5F8F732091350282175A
:100DD00041F0E0913402F0E0E55EFD4F958F8093A5
:100DE0003402FF91EF919F918F912F910F900FBE41
:100DF0000F901F9018958081F4CF1F920F920FB61D
:100E00000F9211242F933F938F939F93AF93BF9390
:100E10008091170290911802A0911902B0911A02C4
:100E200030910A0223E0230F2D3758F50196A11DBA
:100E3000B11D20930A028093170290931802A09389
:100E40001902B0931A0280910B0290910C02A091AA
:100E50000D02B0910E020196A11DB11D80930B02EF
:100E600090930C02A0930D02B0930E02BF91AF912C
:100E70009F918F913F912F910F900FBE0F901F90D8
:100E8000189526E8230F0296A11DB11DD2CF1F92FF
:100E90000F920FB60F9211242F933F934F935F93AE
:100EA0006F937F938F939F93AF93BF93EF93FF9332
:100EB0008091B900887F803609F44AC0F0F5883205
:100EC00009F4A7C018F5803109F49BC0B8F4882351
:100ED00009F4F9C0883009F494C0FF91EF91BF91F3
:100EE000AF919F918F917F916F915F914F913F91C2
:100EF0002F910F900FBE0F901F901895883109F415
:100F000088C0803251F78093E00114C0803409F426
:100F10009DC040F48033B9F38833F9F68093E00143
:100F200085ECB0C0803509F485C0883509F496C0D9
:100F3000883499F60E946D06D0CF883909F48CC0A8
:100F400038F5883729F050F4883611F0803729F6C3
:100F500083E08093E2011092BB0157C0883809F406
:100F60007BC0803919F0803809F0B7CF8091BB0180
:100F7000803208F071C0E091BB0181E08E0F809358
:100F8000BB018091BB00F0E0E556FE4F80833DC081
:100F9000803B39F0E0F4803A09F479C0883A09F0EE
:100FA0009CCF84E08093E20110929A011092990103
:100FB000E0911102F091120209958091990181113D
:100FC0000FC081E0809399011092790109C0803CA3
:100FD00009F4A6CF883C09F4A3CF883B09F07DCF64
:100FE000E0919A0181E08E0F80939A01F0E0E7583A
:100FF000FE4F80818093BB0090919A01809199016E
:1010000029C08091BD018093BB0085EC8093BC001A
:1010100064CF9091DF018091DE01981758F5E0913F
:10102000DF0181E08E0F8093DF01F0E0E254FE4F9C
:101030008081E9CFE091DF0181E08E0F8093DF01B5
:101040008091BB00F0E0E254FE4F80839091DF017D
:101050008091DE019817C8F285E8D8CFE091DF01D2
:1010600081E08E0F8093DF018091BB00F0E0E254BD
:10107000FE4F80838091E10181115CCF81E08093FC
:10108000BC0184EA8093BC001092E20126CF85EC7B
:101090008093BC001092E2018091BB01803230F459
:1010A000E091BB01F0E0E556FE4F10826091BB017C
:1010B00070E0E0910F02F09110028BE991E0099548
:1010C0001092BB010ACF1092E00134CFEBE1F2E0C5
:1010D0001382128288EE93E0A0E0B0E084839583CF
:1010E000A683B78324E131E03183208325EC30E00F
:1010F0003587248724EC30E03787268720EC30E0E2
:10110000318B208B21EC30E0338B228B22EC30E0D2
:10111000358B248B26EC30E0378B268B118E128E8C
:10112000138E148EE8EBF2E013821282848395838F
:10113000A683B78386E291E091838083E7EDF2E0B6
:101140001382128288E391E09183808387E2848313
:1011500080E1818782E082871386A4ECB2E0159655
:101160008C9315978BE016968C931697E0EBF0E036
:10117000E4911796EC931797ECE9F0E0E491189658
:10118000EC93189740E85EE360E070E01D964D93A5
:101190005D936D937C9350970895789484B58260A5
:1011A00084BD84B5816084BD85B5826085BD85B50B
:1011B000816085BD80916E00816080936E00109289
:1011C0008100809181008260809381008091810004
:1011D0008160809381008091800081608093800095
:1011E0008091B10084608093B1008091B0008160F3
:1011F0008093B00080917A00846080937A0080911F
:101200007A00826080937A0080917A008160809376
:101210007A0080917A00806880937A001092C100F1
:1012200010921602109215021092140210921302DC
:101230000E94DE0384EA91E09093120280931102EF
:1012400085EA91E09093100280930F021092DC02E5
:101250008091E102823018F098E09093DC02809354
:10126000DF0262E370E080E090E00E94750260912E
:10127000E20287ED92E00E94A30468EE73E080E052
:1012800090E00E94750260E387ED92E00E94E8051D
:10129000CBE4D6E4CE010197F1F760E387ED92E06D
:1012A0000E94E8052197F1F760E387ED92E00E9444
:1012B000E80583E592E00197F1F760E287ED92E0BF
:1012C0000E94E8056091DC02606240E087ED92E0F8
:1012D0000E94010684E08093DD0240E06CE087ED2F
:1012E00092E00E94010640E061E087ED92E00E94FA
:1012F0000106CBE3DFE1CE010197F1F782E08093B5
:10130000DE0240E066E087ED92E00E94010640E0E8
:1013100062E087ED92E00E9401062197F1F788E0F4
:101320008093E20260E087ED92E00E94A30460E017
:1013300080E00E94180680E491E00E94DB0561E0F5
:1013400080E00E9418068BE491E00E94DB0540E0FB
:1013500068E487ED92E00E940106C0E0D1E008E079
:1013600011E0699187ED92E00E944B060C171D0772
:10137000C1F762E08091C9020E941F022FB7F89462
:101380008091170290911802A0911902B0911A024F
:101390002FBF805D9740A109B1098093CD02909342
:1013A000CE02A093CF02B093D00287E38093D602FF
:1013B000C0E0D0E00E94A702882349F08091CA02D1
:1013C0008B3028F08D3050F085518230C8F1812C5F
:1013D000912C20ECA22E2FE7B22E1EC06091C502E8
:1013E00070E090E080E00E94B90B2DEC3CEC4CECFE
:1013F0005DE30E944A0C6B017C016091C40270E0C5
:1014000090E080E00E94B90B9B01AC01C701B601DE
:101410000E94150B4B015C010E94A702882309F46E
:10142000BBC08091CA028C3009F4C7C0D8F48B309D
:1014300091F1C12CD12C80ECE82E8FE7F82E55C00D
:101440006091C4027091C50276276727762790E0E5
:1014500080E00E94B70B2DEC3CEC4CEC5DE30E946D
:101460004A0CD8CF8551823020F71091C602612FE7
:1014700070E0762F662766277F778091C702682BFA
:1014800090E080E00E94B70B2DEC3CEC4CEC5DE36F
:101490000E944A0CAEC06091C60270E090E080E00D
:1014A0000E94B70B6B017C011091C70217FF0AC0A5
:1014B000AC019B0160E070E080E89FEB0E94140BA0
:1014C0006B017C011F70612F70E090E080E00E9452
:1014D000B90B2DEC3CEC4CEC5DE30E944A0CA701EF
:1014E00096010E94150B6B017C01A7019601C701B3
:1014F000B6010E94B70C81114FC0A5019401C5012E
:10150000B4010E94B70C811147C060E08AE00E94DC
:10151000180620E030E0A901C701B6010E94450C81
:1015200020E030E040E05FE387FD6CC0C701B6011A
:101530000E94150B0E94810B97FF69C00E94510603
:1015400081E591E00E94DB0561E087ED92E00E9479
:101550004B0683E591E00E94DB0561E08AE00E9492
:10156000180620E030E0A901C501B4010E94450C35
:1015700020E030E040E05FE387FD4DC0C501B401ED
:101580000E94150B0E94810B97FF4AC00E945106D2
:1015900085E591E00E94DB0560E874E88EE190E06B
:1015A0000E947502209709F405CF0E9490018823BC
:1015B00009F400CF0E940000FDCE1091C602612FF9
:1015C00070E090E080E00E94B70B6B017C016091BD
:1015D000C7026F7070E090E080E00E94B90B2DECC4
:1015E0003CEC4CEC5DE30E944A0CA70196010E9482
:1015F000150B6B017C0117FF78CFF7FAF094F7F821
:10160000F09473CFC701B6010E94140B93CF4AE048
:101610000E948D0595CFC501B4010E94140BB2CF75
:101620004AE00E948D05B4CF5058BB27AA270E94DC
:101630002C0B0C940B0C0E94FD0B38F00E94040C38
:1016400020F039F49F3F19F426F40C94FA0B0EF4B1
:10165000E095E7FB0C94F40BE92F0E941C0C58F367
:10166000BA17620773078407950720F079F4A6F587
:101670000C943E0C0EF4E0950B2EBA2FA02D0B010E
:10168000B90190010C01CA01A0011124FF27591BC7
:1016900099F0593F50F4503E68F11A16F040A22FCD
:1016A000232F342F4427585FF3CF4695379527953E
:1016B000A795F0405395C9F77EF41F16BA0B620B3D
:1016C000730B840BBAF09150A1F0FF0FBB1F661F84
:1016D000771F881FC2F70EC0BA0F621F731F841FC7
:1016E00048F4879577956795B795F7959E3F08F0ED
:1016F000B0CF9395880F08F09927EE0F97958795AF
:1017000008950E94880B6894B1110C943F0C0895C1
:101710000E94240C88F09F5798F0B92F9927B75151
:10172000B0F0E1F0660F771F881F991F1AF0BA9585
:10173000C9F714C0B13091F00E943E0CB1E0089599
:101740000C943E0C672F782F8827B85F39F0B93F8B
:10175000CCF3869577956795B395D9F73EF4909538
:101760008095709561957F4F8F4F9F4F0895E894B6
:1017700009C097FB3EF490958095709561957F4FD9
:101780008F4F9F4F9923A9F0F92F96E9BB27939587
:10179000F695879577956795B795F111F8CFFAF497
:1017A000BB0F11F460FF1BC06F5F7F4F8F4F9F4FC8
:1017B00016C0882311F096E911C0772321F09EE826
:1017C000872F762F05C0662371F096E8862F70E08C
:1017D00060E02AF09A95660F771F881FDAF7880F66
:1017E0009695879597F9089597F99F6780E870E037
:1017F00060E008959FEF80EC089500240A94161687
:10180000170618060906089500240A9412161306EE
:10181000140605060895092E0394000C11F488237C
:1018200052F0BB0F40F4BF2B11F460FF04C06F5F98
:101830007F4F8F4F9F4F089557FD9058440F551F6E
:1018400059F05F3F71F04795880F97FB991F61F042
:101850009F3F79F087950895121613061406551FB9
:10186000F2CF4695F1DF08C0161617061806991F25
:10187000F1CF86957105610508940895E894BB271A
:1018800066277727CB0197F908950E94BC0C08F4CE
:101890008FEF08950E945D0C0C940B0C0E94FD0BC1
:1018A00038F00E94040C20F0952311F00C94F40BF6
:1018B0000C94FA0B11240C943F0C0E941C0C70F336
:1018C000959FC1F3950F50E0551F629FF001729FE5
:1018D000BB27F00DB11D639FAA27F00DB11DAA1FF4
:1018E000649F6627B00DA11D661F829F2227B00D41
:1018F000A11D621F739FB00DA11D621F839FA00DCC
:10190000611D221F749F3327A00D611D231F849F1B
:10191000600D211D822F762F6A2F11249F57504072
:101920009AF0F1F088234AF0EE0FFF1FBB1F661FED
:10193000771F881F91505040A9F79E3F510580F0B6
:101940000C94F40B0C943F0C5F3FE4F3983ED4F3FB
:10195000869577956795B795F795E7959F5FC1F75A
:10196000FE2B880F911D9695879597F908950E94F3
:10197000BC0C880B990B0895990F0008550FAA0B02
:10198000E0E8FEEF16161706E807F907C0F0121692
:101990001306E407F50798F0621B730B840B950B95
:1019A00039F40A2661F0232B242B252B21F40895EA
:1019B0000A2609F4A140A6958FEF811D811D089587
:1019C000A1E21A2EAA1BBB1BFD010DC0AA1FBB1F43
:1019D000EE1FFF1FA217B307E407F50720F0A21BB5
:1019E000B30BE40BF50B661F771F881F991F1A9422
:1019F00069F760957095809590959B01AC01BD014C
:101A0000CF010895EE0FFF1F0590F491E02D09948A
:041A1000F894FFCF78
:101A14000E0A0E00000000000000400014005400F4
:101A2400000000002301A601C4007001F500D300EA
:101A3400E70000000000740447048A051D04400404
:101A44002D041E04000000004B06A6018A05B603FF
:101A54004E6869657420646F3A2000446F20616D9C
:081A64003A2000430020250098
:00000001FF
