:100000000C94A3000C94CB000C94CB000C94CB006C
:100010000C94CB000C94CB000C94CB000C94CB0034
:100020000C94CB000C94CB000C94CB000C94CB0024
:100030000C94CB000C94B3080C94CB000C94CB0024
:100040000C944A070C94CB000C9418070C94F206FD
:100050000C94CB000C94CB000C94CB000C94CB00F4
:100060000C9494070C94CB0007634236B79BD8A737
:100070001A39685618AEBAAB558C1D3CB7CC5763CD
:10008000BD6DEDFD753EF6177231BF000000803F7B
:1000900008000000BE922449123EABAAAA2ABECD97
:1000A000CCCC4C3E00000080BEABAAAAAA3E000009
:1000B0000000BF000000803F000000000008417801
:1000C000D3BB4387D1133D190E3CC3BD4282AD2B38
:1000D0003E68EC8276BED98FE1A93E4C80EFFFBE30
:1000E00001C4FF7F3F00000000000000000024006A
:1000F00027002A0000000000250028002B00000037
:1001000000080002010000030407000000000000D6
:10011000000000000000230026002900040404045D
:1001200004040404020202020202030303030303A1
:10013000010204081020408001020408102001027E
:1001400004081020DA0811241FBECFEFD8E0DEBF6C
:10015000CDBF11E0A0E0B1E0E4E5F0E202C005901F
:100160000D92A436B107D9F722E0A4E6B1E001C0B0
:100170001D92A03FB207E1F710E0C3EAD0E004C04F
:100180002197FE010E942210C23AD107C9F70E94AE
:1001900045090C9428100C940000CF92DF92EF9246
:1001A000FF92CF93DF93B091D702A0E08111AB2FE4
:1001B0008091D80290E0880F991FAC014E5E5E4F8F
:1001C000C090DD02D090DE02E090DF02F090E0020D
:1001D00030E020E0FA01C591D491E881B90190E0C6
:1001E00080E0EB23EA130AC02F5F3F4F6C157D05BB
:1001F0008E059F0578F36FEF7FEFCB01DF91CF91F5
:10020000FF90EF90DF90CF9008950895089508959E
:10021000AF92BF92CF92DF92EF92FF920F931F9314
:10022000CF93DF936C017B018B01040F151FEB0152
:100230005E01AE18BF08C017D10759F06991D60109
:10024000ED91FC910190F081E02DC6010995892B7B
:1002500079F7C501DF91CF911F910F91FF90EF903A
:10026000DF90CF90BF90AF900895FC01538D448DE7
:10027000252F30E0842F90E0821B930B541710F051
:10028000CF96089501970895FC01918D828D98175E
:1002900061F0A28DAE0FBF2FB11D5D968C91928D36
:1002A0009F5F9F73928F90E008958FEF9FEF089567
:1002B000FC01918D828D981731F0828DE80FF11D30
:1002C000858D90E008958FEF9FEF0895FC01918D4B
:1002D000228D892F90E0805C9F4F821B91098F7344
:1002E0009927089587E292E00E94660121E0892B18
:1002F00009F420E0822F089580E090E0892B29F016
:100300000E94720181110C9400000895FC01A48DDB
:10031000A80FB92FB11DA35ABF4F2C91848D90E027
:1003200001968F739927848FA689B7892C93A0890A
:10033000B1898C91837080648C93938D848D981394
:1003400006C00288F389E02D80818F7D8083089527
:10035000EF92FF920F931F93CF93DF93EC0181E015
:10036000888F9B8D8C8D98131AC0E889F9898081BC
:1003700085FF15C09FB7F894EE89FF896083E889EF
:10038000F98980818370806480839FBF81E090E0E1
:10039000DF91CF911F910F91FF90EF900895F62E6E
:1003A0000B8D10E00F5F1F4F0F731127E02E8C8D08
:1003B0008E110CC00FB607FCFACFE889F98980814D
:1003C00085FFF5CFCE010E948601F1CFEB8DEC0FBA
:1003D000FD2FF11DE35AFF4FF0829FB7F8940B8F6A
:1003E000EA89FB8980818062CFCFCF93DF93EC01D4
:1003F000888D8823B9F0AA89BB89E889F9898C910D
:1004000085FD03C0808186FD0DC00FB607FCF7CFC8
:100410008C9185FFF2CF808185FFEDCFCE010E94C8
:100420008601E9CFDF91CF91089590E0FC01E25081
:10043000FF4F2491FC01E05DFE4F3491FC01E45E2E
:10044000FE4FE491EE23C9F0222339F0233001F16D
:10045000A8F4213019F1223029F1F0E0EE0FFF1F4E
:10046000EC50FF4FA591B4918FB7F894EC916111C6
:1004700026C030953E233C938FBF08952730A9F0C6
:100480002830C9F0243049F7809180008F7D03C067
:10049000809180008F7780938000DFCF84B58F7745
:1004A00084BDDBCF84B58F7DFBCF8091B0008F778B
:1004B0008093B000D2CF8091B0008F7DF9CF3E2BDA
:1004C000DACFCF93DF9390E0FC01E05DFE4F249103
:1004D000845E9E4FFC0184918823D1F090E0880FC8
:1004E000991FFC01E651FF4FA591B491FC01EC501E
:1004F000FF4FC591D491623071F49FB7F8943C914D
:10050000822F809583238C93E8812E2B28839FBF95
:10051000DF91CF9108958FB7F894EC912E2B2C9307
:100520008FBFF6CF3FB7F8948091170290911802D1
:10053000A0911902B0911A0226B5A89B05C02F3FC1
:1005400019F00196A11DB11D3FBFBA2FA92F982FF9
:100550008827BC01CD01620F711D811D911D42E0F4
:10056000660F771F881F991F4A95D1F708958F92BC
:100570009F92AF92BF92CF92DF92EF92FF924B0188
:100580005C010E9492026B017C010E9492026C1934
:100590007D098E099F09683E734081059105A8F386
:1005A00021E0821A9108A108B10888EEC80E83E004
:1005B000D81EE11CF11C81149104A104B10429F797
:1005C000FF90EF90DF90CF90BF90AF909F908F9073
:1005D0000895CF92DF92EF92FF920F931F93CF93E4
:1005E000DF93CDB7DEB7C054D1400FB6F894DEBF6D
:1005F0000FBECDBF2FB7F8948091230290912402B3
:10060000A0912502B09126022FBF4091D9025091AE
:10061000DA026091DB027091DC028C019D01041B07
:10062000150B260B370BB901A801403D574061055A
:10063000710590F48091E102C05CDE4F0FB6F89432
:10064000DEBF0FBECDBFDF91CF911F910F91FF9005
:10065000EF90DF90CF9008958093D9029093DA02C3
:10066000A093DB02B093DC021092D4021092D3026A
:100670001092D2021092D1021092D00262E08091C8
:10068000D5020E94610261E070E080E090E00E948B
:10069000B70261E08091D5020E94610260E0809122
:1006A000D5020E9415028091D6028551823020F534
:1006B0008BE291E10197F1F762E08091D5020E940F
:1006C00061028091E20290E08230910538F0880F5B
:1006D000991F880F991F05970197F1F7F89480E00B
:1006E0000E94CD006F3F7F4F8F4F9F4F61F410925C
:1006F000E102789480E0A0CF64E170E080E090E0D7
:100700000E94B702D9CF81E00E94CD006F3F7F4F9A
:100710008F4F9F4F61F38E010F5F1F4F6E018FEB65
:10072000C81A8EEFD80A780180E00E94CD00F70148
:10073000608371838283938381E00E94CD00F701FF
:100740006483758386839783F8E0EF0EF11CEC14C5
:10075000FD0451F7789430E020E0F801C080D180AA
:10076000E280F3804481558166817781FFEFCF1667
:10077000DF06EF06FF0631F04F3F8FEF580768079F
:10078000780719F41092E102B5CFF90183E0F595ED
:10079000E7958A95E1F7E053FD4F8081880FC416F5
:1007A000D506E606F70610F180832F5F3F4F085FFE
:1007B0001F4F2832310589F64091D4022091D00292
:1007C0008091D102280F3327331F8091D202280F46
:1007D000311D8091D302820F932F911D99274817C5
:1007E000190681F681E08093E10226CF8160DCCF9B
:1007F00008952091A501260F3327331F213231059B
:10080000ECF42091EE01FC0190E080E0243069F0EE
:1008100082E00895A091A5012191AC014B575E4F54
:10082000A40FB52FB11D2C930196861798F38091D4
:10083000A501680F6093A50180E0089581E0089507
:100840001092EE0181E08093ED011092C80161E009
:1008500082E10E94150261E083E10E941502E9EB4A
:10086000F0E080818E7F808380818D7F808388E42B
:100870008093B80085E48093BC000895CF93DF9304
:1008800091E0909384018823B9F0C091B800D09191
:10089000BA008091BC008A7B8093BC0060E082E15A
:1008A0000E94150260E083E10E9415020E9420046C
:1008B000D093BA00C093B800DF91CF910895089506
:1008C000E091220280912102E81730F4F0E0EC5927
:1008D000FE4F808190E008958FEF9FEF08959091F3
:1008E0002202809121022FEF3FEF981748F4E92F61
:1008F000F0E0EC59FE4F208130E09F5F90932202A0
:10090000C90108958091210290912202891B990BBF
:100910000895CF92DF92EF92FF920F931F93CF93A0
:10092000DF937C01CB018A012091F401222389F01D
:10093000EB016B01C40ED51ECC15DD0569F0699184
:10094000D701ED91FC910190F081E02DC70109954F
:10095000F3CF642F0E94F903C801DF91CF911F915B
:100960000F91FF90EF90DF90CF900895CF93DF939A
:100970001F92CDB7DEB769832091F4012223F9F0ED
:1009800020911F02203258F021E030E0FC01338337
:10099000228390E080E00F90DF91CF9108958091C5
:1009A0002002E82FF0E0EB50FE4F998190838F5F9B
:1009B0008093200280931F0281E090E0ECCF61E001
:1009C000CE0101960E94F903F7CFCF92DF92EF920A
:1009D000FF920F931F93CF93DF93FC01C48121E01B
:1009E0002093F401C09315021092200210921F026E
:1009F0008385682B84EC92E00E94B604D0911F029C
:100A0000D13208F092C00E9492026B017C01809169
:100A1000EE01811165C082E08093EE0181E0809358
:100A2000ED018FEF8093EC011092EB01D093EA017E
:100A3000A5EFB1E0EAECF1E080E0D81385C01092B8
:100A4000C9018091C901CC0FC82BC093C901809105
:100A5000C801813009F07CC01092C8010E94920246
:100A60006B017C018091C9018093BB008091F001F2
:100A70009091F101A091F201B091F301892B8A2BA1
:100A80008B2B99F00E9492020091F0011091F101DC
:100A90002091F2013091F3016C197D098E099F09B3
:100AA0000617170728073907E0F18091BC0083FD7E
:100AB000D9CF85EC8093BC000E9492026B017C012F
:100AC0008091EE01823009F445C08091EC018F3FA6
:100AD00061F18091EC01803241F18091EC0125C0FF
:100AE0008091F0019091F101A091F201B091F30198
:100AF000892B8A2B8B2B09F48ACF0E9492020091BA
:100B0000F0011091F1012091F2013091F3016C1983
:100B10007D098E099F09061717072807390708F06E
:100B200076CF8091EF010E943E0410922002109235
:100B30001F021092F401DF91CF911F910F91FF904E
:100B4000EF90DF90CF9008959D9191938F5F75CF37
:100B500085EEB0CF8091F0019091F101A091F2016A
:100B6000B091F301892B8A2B8B2B09F4A9CF0E941A
:100B700092020091F0011091F1012091F201309167
:100B8000F3016C197D098E099F09061717072807BD
:100B9000390708F095CFC5CF90E080E0089508951B
:100BA0008F929F92AF92BF920F931F93CF93DF9339
:100BB000CDB7DEB7A1970FB6F894DEBF0FBECDBF9D
:100BC00019A2423008F44AE08E010F5D1F4F842EB7
:100BD000912CB12CA12CA50194010E940010E62FAC
:100BE000B901CA01EA3044F5E05DD801EE938D0108
:100BF000232B242B252B79F790E080E0109769F0C8
:100C0000FD0101900020E9F73197AF014A1B5B0B12
:100C1000BD0184EE92E00E940801A1960FB6F894FF
:100C2000DEBF0FBECDBFDF91CF911F910F91BF905F
:100C3000AF909F908F900895E95CD7CFFC01019011
:100C40000020E9F73197AF01481B590BBC0184EE36
:100C500092E00C9408010F931F93CF938C01C62F41
:100C60000E94E5046C2F6460C8010E94E5046C2FAB
:100C70006B7FC8010E94E50483EC90E00197F1F7D7
:100C8000CF911F910F9108950F931F93CF93DF93EF
:100C90008C01D62FC42F607F642B0E942B0680E12D
:100CA000D89FB00111246C2BC801DF91CF911F9107
:100CB0000F910C942B06CF93DF93CDB7DEB7289717
:100CC0000FB6F894DEBF0FBECDBF98E0EAE0F1E0CA
:100CD000DE01119601900D929A95E1F79091EC0248
:100CE000961710F46FEF690F262F30E0220F331F95
:100CF00041E050E04C0F5D1F240F351FF90160816A
:100D0000680F606840E084EE92E028960FB6F89491
:100D1000DEBF0FBECDBFDF91CF910C94440641E002
:100D20000E94440681E090E00895CF92DF92EF9216
:100D3000FF9297FF18C06B017C0141E06DE284EEE9
:100D400092E00E94440666277727CB016C197D0943
:100D50008E099F094AE00E94D0050196FF90EF900E
:100D6000DF90CF9008954AE0FF90EF90DF90CF9012
:100D70000C94D00585ED8093BC008091F00190919A
:100D8000F101A091F201B091F3010796A11DB11DEF
:100D900023E0B695A795979587952A95D1F7209149
:100DA000BC0024FD03C01092EE0108954091F001B3
:100DB0005091F1016091F2017091F301452B462BA6
:100DC000472B69F30097A105B10541F025E32A956A
:100DD000F1F700000197A109B109E1CF8091EF017E
:100DE0000C943E041F920F920FB60F9211242F9372
:100DF0003F934F935F936F937F938F939F93AF93A3
:100E0000BF93EF93FF9387E292E00E948601FF91E8
:100E1000EF91BF91AF919F918F917F916F915F9172
:100E20004F913F912F910F900FBE0F901F901895EB
:100E30001F920F920FB60F9211242F938F939F93AF
:100E4000EF93FF93E0913702F09138028081E091B7
:100E50003D02F0913E0282FD1BC0908180914002D4
:100E60008F5F8F7320914102821741F0E091400221
:100E7000F0E0E95DFD4F958F80934002FF91EF9187
:100E80009F918F912F910F900FBE0F901F901895EB
:100E90008081F4CF1F920F920FB60F9211242F93DF
:100EA0003F938F939F93AF93BF9380912302909131
:100EB0002402A0912502B09126023091160223E06F
:100EC000230F2D3758F50196A11DB11D2093160251
:100ED0008093230290932402A0932502B0932602CC
:100EE0008091170290911802A0911902B0911A02F4
:100EF0000196A11DB11D8093170290931802A09333
:100F00001902B0931A02BF91AF919F918F913F91B7
:100F10002F910F900FBE0F901F90189526E8230F6A
:100F20000296A11DB11DD2CF1F920F920FB60F9244
:100F300011242F933F934F935F936F937F938F93DE
:100F40009F93AF93BF93EF93FF938091B900887FF6
:100F5000803609F44AC0F0F5883209F4A7C018F5C4
:100F6000803109F49BC0B8F4882309F4F9C08830B3
:100F700009F494C0FF91EF91BF91AF919F918F9130
:100F80007F916F915F914F913F912F910F900FBE85
:100F90000F901F901895883109F488C0803251F75E
:100FA0008093EC0114C0803409F49DC040F4803378
:100FB000B9F38833F9F68093EC0185ECB0C0803545
:100FC00009F485C0883509F496C0883499F60E94E2
:100FD000BA06D0CF883909F48CC038F5883729F0A3
:100FE00050F4883611F0803729F683E08093EE01C3
:100FF0001092C70157C0883809F47BC0803919F0B6
:10100000803809F0B7CF8091C701803208F071C0F5
:10101000E091C70181E08E0F8093C7018091BB00F2
:10102000F0E0E955FE4F80833DC0803B39F0E0F4AD
:10103000803A09F479C0883A09F09CCF84E0809323
:10104000EE011092A6011092A501E0911D02F0910F
:101050001E0209958091A50181110FC081E0809346
:10106000A5011092850109C0803C09F4A6CF883CF7
:1010700009F4A3CF883B09F07DCFE091A60181E080
:101080008E0F8093A601F0E0EB57FE4F8081809396
:10109000BB009091A6018091A50129C08091C90152
:1010A0008093BB0085EC8093BC0064CF9091EB01F2
:1010B0008091EA01981758F5E091EB0181E08E0FDD
:1010C0008093EB01F0E0E653FE4F8081E9CFE091A1
:1010D000EB0181E08E0F8093EB018091BB00F0E08B
:1010E000E653FE4F80839091EB018091EA019817BF
:1010F000C8F285E8D8CFE091EB0181E08E0F8093B4
:10110000EB018091BB00F0E0E653FE4F80838091BD
:10111000ED0181115CCF81E08093C80184EA809366
:10112000BC001092EE0126CF85EC8093BC0010929B
:10113000EE018091C701803230F4E091C701F0E008
:10114000E955FE4F10826091C70170E0E0911B02EB
:10115000F0911C0287EA91E009951092C7010ACF2D
:101160001092EC0134CF1F920F920FB60F92112400
:101170002F933F934F935F936F937F938F939F939F
:10118000AF93BF93EF93FF93E0910801F0910901B2
:101190000995FF91EF91BF91AF919F918F917F91B1
:1011A0006F915F914F913F912F910F900FBE0F90D4
:1011B0001F901895E7E2F2E01382128288EE93E026
:1011C000A0E0B0E084839583A683B78326E131E075
:1011D0003183208325EC30E03587248724EC30E010
:1011E0003787268720EC30E0318B208B21EC30E0F4
:1011F000338B228B22EC30E0358B248B26EC30E0D5
:10120000378B268B118E128E138E148EE4ECF2E047
:101210001382128284839583A683B78388E291E048
:1012200091838083E4EEF2E0138212828AE391E0FC
:101230009183808387E2848380E1818784E0828751
:1012400013868EE08093E302A0EDB2E082E0159673
:101250008C9315978BE016968C931697E2E3F1E04A
:10126000E4911796EC931797EEE1F1E0E49118966C
:10127000EC93189740E85EE360E070E01D964D93B4
:101280005D936D937C9350970895789484B58260B4
:1012900084BD84B5816084BD85B5826085BD85B51A
:1012A000816085BD80916E00816080936E00109298
:1012B0008100809181008260809381008091810013
:1012C00081608093810080918000816080938000A4
:1012D0008091B10084608093B1008091B000816002
:1012E0008093B00080917A00846080937A0080912E
:1012F0007A00826080937A0080917A008160809386
:101300007A0080917A00806880937A001092C10000
:10131000E0913702F091380282E08083E09133025D
:10132000F09134021082E0913502F09136028FEC98
:10133000808310923F02E0913B02F0913C0286E0F4
:101340008083E0913902F0913A028081806180834C
:10135000E0913902F0913A02808188608083E091C7
:101360003902F0913A02808180688083E0913902ED
:10137000F0913A0280818F7D808380E180938100AB
:101380001092800080E49CE990938700809386000F
:1013900081E18093810085E091E090930901809341
:1013A000080181E080936F001092220210922102C6
:1013B0001092200210921F020E94200486E091E009
:1013C00090931E0280931D0287E091E090931C028F
:1013D00080931B021092E9028091EE02823018F095
:1013E00098E09093E9028093EC0262E370E080E081
:1013F00090E00E94B7026091EF0284EE92E00E94BA
:10140000E50468EE73E080E090E00E94B70260E3DC
:1014100084EE92E00E942B06CBE4D6E4CE01019745
:10142000F1F760E384EE92E00E942B062197F1F73A
:1014300060E384EE92E00E942B0683E592E0019740
:10144000F1F760E284EE92E00E942B066091E902DF
:10145000606240E084EE92E00E94440684E0809363
:10146000EA0240E06CE084EE92E00E94440640E034
:1014700061E084EE92E00E944406CBE3DFE1CE011E
:101480000197F1F782E08093EB0240E066E084EEA2
:1014900092E00E94440640E062E084EE92E00E9406
:1014A00044062197F1F788E08093EF0260E084EE34
:1014B00092E00E94E50460E080E00E945B0682E426
:1014C00091E00E941E0661E080E00E945B068DE4D0
:1014D00091E00E941E0663E080E00E945B0685E5C5
:1014E00091E00E941E0640E068E484EE92E00E94D3
:1014F0004406C0E0D1E008E011E0699184EE92E09A
:101500000E948F060C171D07C1F762E08091D5027B
:101510000E9461022FB7F8948091230290912402D7
:10152000A0912502B09126022FBF805D9740A109AE
:10153000B1098093D9029093DA02A093DB02B093B1
:10154000DC0287E38093E202C0E0D0E00E94E9027F
:10155000882351F08091D6028B3030F08D3058F0D6
:101560008551823008F485C0812C912C20ECA22E6C
:101570002FE7B22E1EC06091D10270E090E080E0B3
:101580000E94540D2DEC3CEC4CEC5DE30E94E50D0B
:101590006B017C016091D00270E090E080E00E94DD
:1015A000540D9B01AC01C701B6010E943E0C4B01DA
:1015B0005C018091E3028E3008F08E508770806469
:1015C00080937C0080917A00806480937A0080917F
:1015D0007A0086FDFCCF8091780060917900762FAB
:1015E000682F072E000C880B990B0E94540D9B014D
:1015F000AC0160E070EC8FE794E40E94AA0C20E05C
:1016000030E040EA50E40E94E50D20E030E040E8A0
:101610005FE30E943D0C20E030E040E251E40E9494
:10162000E50D2FE832E449E952E40E94AA0C2EEDC0
:1016300037E341E350EC0E94520E22E434E349EEDA
:1016400052E40E94E50D2B013C010E94E90288232F
:1016500009F4B7C08091D6028C3009F4DAC0D8F40E
:101660008B3091F1C12CD12C80ECE82E8FE7F82E35
:1016700055C06091D0027091D102762767277627F6
:1016800090E080E00E94520D2DEC3CEC4CEC5DE3D0
:101690000E94E50D8CCF8551823020F71091D20247
:1016A000612F70E0762F662766277F778091D302BF
:1016B000682B90E080E00E94520D2DEC3CEC4CEC4D
:1016C0005DE30E94E50DC1C06091D20270E090E040
:1016D00080E00E94520D6B017C011091D30217FF34
:1016E0000AC0AC019B0160E070E080E89FEB0E94C3
:1016F0003D0C6B017C011F70612F70E090E080E079
:101700000E94540D2DEC3CEC4CEC5DE30E94E50D89
:10171000A70196010E943E0C6B017C01A701960176
:10172000C701B6010E94A20E81114BC0A501940110
:10173000C501B4010E94A20E811143C060E08AE09D
:101740000E945B0620E030E0A901C701B6010E94BB
:10175000E00D20E030E040E05FE387FD7FC0C7019F
:10176000B6010E943E0C0E941C0D0E94950689E560
:1017700091E00E941E0661E084EE92E00E948F06D6
:101780008BE591E00E941E0661E08AE00E945B0604
:1017900020E030E0A901C501B4010E94E00D20E085
:1017A00030E040E05FE387FD5EC0C501B4010E9408
:1017B0003E0C0E941C0D0E9495068DE591E00E9452
:1017C0001E0663E085E00E945B0620E030E0A90190
:1017D000C301B2010E94E00D20E030E040E05FE391
:1017E00087FD46C0C301B2010E943E0C0E941C0D41
:1017F0000E94950680E691E00E941E06209709F45B
:10180000A5CE0E947201882309F4A0CE0E94000098
:101810009DCE1091D202612F70E090E080E00E9496
:10182000520D6B017C016091D3026F7070E090E00B
:1018300080E00E94540D2DEC3CEC4CEC5DE30E94EA
:10184000E50DA70196010E943E0C6B017C0117FF7C
:1018500065CFF7FAF094F7F8F09460CFC701B601BE
:101860000E943D0C80CFC501B4010E943D0CA1CF68
:10187000C301B2010E943D0CB9CF5058BB27AA2723
:101880000E94550C0C94A60D0E94980D38F00E94F1
:101890009F0D20F039F49F3F19F426F40C94950D18
:1018A0000EF4E095E7FB0C948F0DE92F0E94B70D25
:1018B00058F3BA17620773078407950720F079F485
:1018C000A6F50C94D90D0EF4E0950B2EBA2FA02D91
:1018D0000B01B90190010C01CA01A0011124FF27DD
:1018E000591B99F0593F50F4503E68F11A16F040D8
:1018F000A22F232F342F4427585FF3CF46953795D7
:101900002795A795F0405395C9F77EF41F16BA0B9B
:10191000620B730B840BBAF09150A1F0FF0FBB1F49
:10192000661F771F881FC2F70EC0BA0F621F731F92
:10193000841F48F4879577956795B795F7959E3FEF
:1019400008F0B0CF9395880F08F09927EE0F979580
:10195000879508950E94BE0C0C94A60D0E949F0DC1
:1019600058F00E94980D40F029F45F3F29F00C9444
:101970008F0D51110C94DA0D0C94950D0E94B70D3A
:1019800068F39923B1F3552391F3951B550BBB27AE
:10199000AA2762177307840738F09F5F5F4F220FF3
:1019A000331F441FAA1FA9F335D00E2E3AF0E0E8EA
:1019B00032D091505040E695001CCAF72BD0FE2F34
:1019C00029D0660F771F881FBB1F261737074807C8
:1019D000AB07B0E809F0BB0B802DBF01FF27935880
:1019E0005F4F3AF09E3F510578F00C948F0D0C94A8
:1019F000DA0D5F3FE4F3983ED4F3869577956795CB
:101A0000B795F7959F5FC9F7880F911D96958795B4
:101A100097F90895E1E0660F771F881FBB1F6217D3
:101A200073078407BA0720F0621B730B840BBA0B91
:101A3000EE1F88F7E09508950E94230D6894B11178
:101A40000C94DA0D08950E94BF0D88F09F5798F00E
:101A5000B92F9927B751B0F0E1F0660F771F881FB3
:101A6000991F1AF0BA95C9F714C0B13091F00E94CD
:101A7000D90DB1E008950C94D90D672F782F8827E0
:101A8000B85F39F0B93FCCF3869577956795B395F4
:101A9000D9F73EF490958095709561957F4F8F4F63
:101AA0009F4F0895E89409C097FB3EF49095809568
:101AB000709561957F4F8F4F9F4F9923A9F0F92F14
:101AC00096E9BB279395F695879577956795B79592
:101AD000F111F8CFFAF4BB0F11F460FF1BC06F5F78
:101AE0007F4F8F4F9F4F16C0882311F096E911C08A
:101AF000772321F09EE8872F762F05C0662371F0AB
:101B000096E8862F70E060E02AF09A95660F771FBE
:101B1000881FDAF7880F9695879597F9089597F9B2
:101B20009F6780E870E060E008959FEF80EC089583
:101B300000240A94161617061806090608950024AC
:101B40000A9412161306140605060895092E039426
:101B5000000C11F4882352F0BB0F40F4BF2B11F49A
:101B600060FF04C06F5F7F4F8F4F9F4F089557FDF9
:101B70009058440F551F59F05F3F71F04795880FFB
:101B800097FB991F61F09F3F79F087950895121692
:101B900013061406551FF2CF4695F1DF08C016163E
:101BA00017061806991FF1CF8695710561050894EF
:101BB0000895E894BB2766277727CB0197F9089506
:101BC0000E94E10E08F48FEF08950E94F80D0C9426
:101BD000A60D0E94980D38F00E949F0D20F09523CD
:101BE00011F00C948F0D0C94950D11240C94DA0DBA
:101BF0000E94B70D70F3959FC1F3950F50E0551FEC
:101C0000629FF001729FBB27F00DB11D639FAA2751
:101C1000F00DB11DAA1F649F6627B00DA11D661FA0
:101C2000829F2227B00DA11D621F739FB00DA11DC1
:101C3000621F839FA00D611D221F749F3327A00D7B
:101C4000611D231F849F600D211D822F762F6A2F17
:101C500011249F5750409AF0F1F088234AF0EE0F7C
:101C6000FF1FBB1F661F771F881F91505040A9F7A9
:101C70009E3F510580F00C948F0D0C94DA0D5F3F60
:101C8000E4F3983ED4F3869577956795B795F795E5
:101C9000E7959F5FC1F7FE2B880F911D969587955D
:101CA00097F90895FA01EE0FFF1F309621053105CF
:101CB000A1F16115710561F48038BFE39B0749F11B
:101CC00068949038810561F08038BFEF9B0741F040
:101CD00099234AF5FF3FE1053105210519F1E89403
:101CE0000894E795D901AA2329F4AB2FBE2FF85FFA
:101CF000D0F310C0FF5F70F4A695E0F7F73950F00D
:101D000019F0FF3A38F49F779F930DD00F9007FC9E
:101D10009058089546F00C94950D60E070E080E8CE
:101D20009FE308954FE79F775F934F933F932F93E0
:101D30000E94760F2F913F914F915F910E94E50D88
:101D40000C94AF0E0E94E10E880B990B089529F4B4
:101D500016F00C948F0D0C94D90D0C94950D0E94D7
:101D6000BF0DA8F39638A0F707F80F92E8942BE37D
:101D70003AEA48EB5FE70E94FB0D0F920F920F9239
:101D80004DB75EB70F920E94BE0FE8E6F0E00E94EA
:101D9000050F4F915F91EF91FF91E595EE1FFF1FAA
:101DA00049F0FE57E0684427EE0F441FFA95E1F72B
:101DB0004195550B0E94380F0F9007FE0C942C0F85
:101DC0000895990F0008550FAA0BE0E8FEEF1616CC
:101DD0001706E807F907C0F012161306E407F5071F
:101DE00098F0621B730B840B950B39F40A2661F093
:101DF000232B242B252B21F408950A2609F4A14036
:101E0000A6958FEF811D811D0895DF93CF931F93BA
:101E10000F93FF92EF92DF927B018C01689406C0D2
:101E2000DA2EEF010E94F80DFE01E894A5912591AC
:101E3000359145915591A6F3EF010E94550CFE0195
:101E40009701A801DA9469F7DF90EF90FF900F9166
:101E50001F91CF91DF9108959B01AC0160E070E08C
:101E600080E89FE30C94AA0C0C948F0D0C94F20F55
:101E70000E94BF0DD8F39923C9F3940F511DA3F30A
:101E80009150504094F059F0882332F0660F771F3C
:101E9000881F91505040C1F79E3F51052CF7880F85
:101EA000911D9695879597F908955F3FACF0983E00
:101EB0009CF0BB27869577956795B79508F4B16038
:101EC0009395C1F7BB0F58F711F460FFE8CF6F5F30
:101ED0007F4F8F4F9F4FE3CF0C94DA0D16F00C9489
:101EE000F20F0C94950D68940C948F0D0E94BF0D09
:101EF000A8F39923C1F3AEF3DF93CF931F930F930E
:101F0000FF92C92FDD2788232AF02197660F771FBC
:101F1000881FDAF720E030E040E85FEB9FE3883984
:101F200020F0803E38F021968F770E943E0CE0E949
:101F3000F0E004C00E943E0CEDEBF0E00E94050FC3
:101F40008B01BE01EC01FB2E6F5771097595771F50
:101F5000880B990B0E94540D28E132E741E35FE3BF
:101F60000E94F80DAF2D9801AE01FF900F911F91C7
:101F7000CF91DF910E94550C0C94A60DFA01DC0163
:101F8000AA0FBB1F9B01AC01BF5728F422273327A0
:101F90004427507820C0B75190F4AB2F00244695C9
:101FA00037952795011CA395D2F3002071F0220FDD
:101FB000331F441FB395DAF30ED00C943D0C6130FF
:101FC0007105A0E88A07B94630F49B01AC01662789
:101FD000772788279078309621F0208331834283B9
:101FE000538308959F3F31F0915020F48795779562
:101FF0006795B795880F911D9695879597F90895E0
:10200000A1E21A2EAA1BBB1BFD010DC0AA1FBB1FFC
:10201000EE1FFF1FA217B307E407F50720F0A21B6E
:10202000B30BE40BF50B661F771F881F991F1A94DB
:1020300069F760957095809590959B01AC01BD0105
:10204000CF010895EE0FFF1F0590F491E02D099444
:04205000F894FFCF32
:102054000E0A0E0000000000CF050000400014002E
:10206400540000000000A80108013501F5016601D3
:102074004401580100000000B6048904CC055F0443
:1020840082046F046004000000008F060801CC0580
:10209400F8034E6869657420646F3A2000446F2029
:1020A400616D3A200050504D3A2000430020250035
:0420B40050504D003B
:00000001FF
