:100000000C9462000C94F5070C94CE070C948A00B3
:100010000C948A000C948A000C948A000C948A0038
:100020000C948A000C948A000C948A000C948A0028
:100030000C948A000C941C080C948A000C948A007E
:100040000C9484070C948A000C9452070C942C078F
:100050000C948A000C948A000C948A000C948A00F8
:100060000C9443080C948A00000000002400270030
:100070002A0000000000250028002B0000000008D6
:10008000000201000003040700000000000000005F
:1000900000000000230026002900040404040404D6
:1000A0000404020202020202030303030303010227
:1000B00004081020408001020408102001020408F6
:1000C0001020620911241FBECFEFD8E0DEBFCDBFE4
:1000D00011E0A0E0B1E0EEEEFBE102C005900D9270
:1000E000AC36B107D9F723E0ACE6B1E001C01D9210
:1000F000A030B207E1F710E0C2E6D0E004C02197DB
:10010000FE010E94EF0DC136D107C9F70E94CA094E
:100110000C94F50D0C940000CF92DF92EF92FF92B9
:10012000CF93DF93B091E802A0E08111AB2F8091D3
:10013000E90290E0880F991FAC0140575F4FC090D3
:10014000EE02D090EF02E090F002F090F10230E089
:1001500020E0FA01C591D491E881B90190E080E0F6
:10016000EB23EA130AC02F5F3F4F6C157D058E0508
:100170009F0578F36FEF7FEFCB01DF91CF91FF9079
:10018000EF90DF90CF90089590910F0181E0911151
:1001900080E080930F0180912B0291E0892780936A
:1001A0002B0210920E01089508950895AF92BF9208
:1001B000CF92DF92EF92FF920F931F93CF93DF9333
:1001C0006C017B018B01040F151FEB015E01AE1862
:1001D000BF08C017D10759F06991D601ED91FC9184
:1001E0000190F081E02DC6010995892B79F7C501B1
:1001F000DF91CF911F910F91FF90EF90DF90CF9003
:10020000BF90AF900895FC01538D448D252F30E0B1
:10021000842F90E0821B930B541710F0CF96089513
:1002200001970895FC01918D828D981761F0A28D40
:10023000AE0FBF2FB11D5D968C91928D9F5F9F7306
:10024000928F90E008958FEF9FEF0895FC01918DBC
:10025000828D981731F0828DE80FF11D858D90E029
:1002600008958FEF9FEF0895FC01918D228D892FC6
:1002700090E0805C9F4F821B91098F7399270895AE
:1002800088E392E00E94340121E0892B09F420E008
:10029000822F089580E090E0892B29F00E94400190
:1002A00081110C9400000895FC01A48DA80FB92FB2
:1002B000B11DA35ABF4F2C91848D90E001968F738E
:1002C0009927848FA689B7892C93A089B1898C91AD
:1002D000837080648C93938D848D981306C00288FC
:1002E000F389E02D80818F7D80830895EF92FF92C6
:1002F0000F931F93CF93DF93EC0181E0888F9B8D49
:100300008C8D98131AC0E889F989808185FF15C002
:100310009FB7F894EE89FF896083E889F989808125
:100320008370806480839FBF81E090E0DF91CF91F4
:100330001F910F91FF90EF900895F62E0B8D10E016
:100340000F5F1F4F0F731127E02E8C8D8E110CC085
:100350000FB607FCFACFE889F989808185FFF5CFD0
:10036000CE010E945401F1CFEB8DEC0FFD2FF11D5A
:10037000E35AFF4FF0829FB7F8940B8FEA89FB890D
:1003800080818062CFCFCF93DF93EC01888D88236B
:10039000B9F0AA89BB89E889F9898C9185FD03C0E8
:1003A000808186FD0DC00FB607FCF7CF8C9185FFCD
:1003B000F2CF808185FFEDCFCE010E945401E9CFBD
:1003C000DF91CF91089590E0FC01E458FF4F249114
:1003D000FC01E255FF4F3491FC01E656FF4FE491DA
:1003E000EE23C9F0222339F0233001F1A8F42130A3
:1003F00019F1223029F1F0E0EE0FFF1FEE58FF4F08
:10040000A591B4918FB7F894EC91611126C0309505
:100410003E233C938FBF08952730A9F02830C9F0C0
:10042000243049F7809180008F7D03C08091800047
:100430008F7780938000DFCF84B58F7784BDDBCF4B
:1004400084B58F7DFBCF8091B0008F778093B00013
:10045000D2CF8091B0008F7DF9CF3E2BDACFCF93F2
:10046000DF9390E0FC01E255FF4F249186569F4FA9
:10047000FC0184918823C9F090E0880F991FFC014A
:10048000E859FF4FA591B491FC01EE58FF4FC5917B
:10049000D49161110DC09FB7F8948C91209582235F
:1004A0008C938881282328839FBFDF91CF91089563
:1004B000623051F49FB7F8943C91822F809583234A
:1004C0008C93E8812E2BEFCF8FB7F894EC912E2BE5
:1004D0002C938FBFEACF3FB7F89480911F02909181
:1004E0002002A0912102B091220226B5A89B05C04E
:1004F0002F3F19F00196A11DB11D3FBFBA2FA92FA3
:10050000982F8827BC01CD01620F711D811D911D9F
:1005100042E0660F771F881F991F4A95D1F708950B
:100520008F929F92AF92BF92CF92DF92EF92FF9203
:100530004B015C010E946B026B017C010E946B020B
:100540006C197D098E099F09683E734081059105EC
:10055000A8F321E0821A9108A108B10888EEC80E1C
:1005600083E0D81EE11CF11C81149104A104B104A4
:1005700029F7FF90EF90DF90CF90BF90AF909F90C2
:100580008F900895CF92DF92EF92FF920F931F9377
:10059000CF93DF93CDB7DEB7C054D1400FB6F894F8
:1005A000DEBF0FBECDBF2FB7F8948091340290917B
:1005B0003502A0913602B09137022FBF4091EA0276
:1005C0005091EB026091EC027091ED028C019D0163
:1005D000041B150B260B370BB901A801403D5740F2
:1005E0006105710590F48091F202C05CDE4F0FB698
:1005F000F894DEBF0FBECDBFDF91CF911F910F9159
:10060000FF90EF90DF90CF9008958093EA0290934F
:10061000EB02A093EC02B093ED021092E50210926F
:10062000E4021092E3021092E2021092E10262E010
:100630008091E6020E942F0261E070E080E090E08D
:100640000E94900261E08091E6020E942F0260E029
:100650008091E6020E94E3018091E7028551823099
:1006600020F58BE291E10197F1F762E08091E602DB
:100670000E942F028091F30290E08230910538F0C1
:10068000880F991F880F991F05970197F1F7F89424
:1006900080E00E948C006F3F7F4F8F4F9F4F61F42F
:1006A0001092F202789480E0A0CF64E170E080E0E4
:1006B00090E00E949002D9CF81E00E948C006F3FB1
:1006C0007F4F8F4F9F4F61F38E010F5F1F4F6E0162
:1006D0008FEBC81A8EEFD80A780180E00E948C0058
:1006E000F701608371838283938381E00E948C0091
:1006F000F7016483758386839783F8E0EF0EF11C1E
:10070000EC14FD0451F7789430E020E0F801C0804B
:10071000D180E280F3804481558166817781FFEF4B
:10072000CF16DF06EF06FF0631F04F3F8FEF580779
:100730006807780719F41092F202B5CFF90183E047
:10074000F595E7958A95E1F7EF51FD4F8081880F88
:10075000C416D506E606F70610F180832F5F3F4FDB
:10076000085F1F4F2832310589F64091E50220913C
:10077000E1028091E202280F3327331F8091E302C8
:10078000280F311D8091E402820F932F911D99272C
:100790004817190681F681E08093F20226CF816026
:1007A000DCCF0895089508952091AD01260F3327D9
:1007B000331F21323105ECF42091F601FC0190E069
:1007C00080E0243069F082E00895A091AD0121918C
:1007D000AC0143575E4FA40FB52FB11D2C9301966A
:1007E000861798F38091AD01680F6093AD0180E0AA
:1007F000089581E008951092F60181E08093F5015B
:100800001092D00161E082E10E94E30161E083E1A6
:100810000E94E301E9EBF0E080818E7F808380819C
:100820008D7F808388E48093B80085E48093BC004A
:100830000895CF93DF9391E090938C018823B9F0D2
:10084000C091B800D091BA008091BC008A7B80939F
:10085000BC0060E082E10E94E30160E083E10E946D
:10086000E3010E94FB03D093BA00C093B800DF916C
:10087000CF9108950895E0912A0280912902E81706
:1008800030F4F0E0E459FE4F808190E008958FEF5E
:100890009FEF089590912A02809129022FEF3FEF58
:1008A000981748F4E92FF0E0E459FE4F208130E03A
:1008B0009F5F90932A02C901089580912902909127
:1008C0002A02891B990B0895CF92DF92EF92FF9233
:1008D0000F931F93CF93DF937C01CB018A0120916B
:1008E000FC01222389F0EB016B01C40ED51ECC154F
:1008F000DD0569F06991D701ED91FC910190F081DE
:10090000E02DC7010995F3CF642F0E94D403C801DD
:10091000DF91CF911F910F91FF90EF90DF90CF90DB
:100920000895CF93DF931F92CDB7DEB769832091EF
:10093000FC012223F9F020912702203258F021E017
:1009400030E0FC013383228390E080E00F90DF9160
:10095000CF91089580912802E82FF0E0E350FE4FF8
:10096000998190838F5F809328028093270281E092
:1009700090E0ECCF61E0CE0101960E94D403F7CF66
:10098000CF92DF92EF92FF920F931F93CF93DF935B
:10099000FC01C48121E02093FC01C0931D02109250
:1009A0002802109227028385682B85ED92E00E9431
:1009B0009104D0912702D13208F092C00E946B02BC
:1009C0006B017C018091F601811165C082E080930A
:1009D000F60181E08093F5018FEF8093F40110928E
:1009E000F301D093F201ADEFB1E0E2EDF1E080E090
:1009F000D81385C01092D1018091D101CC0FC82BA2
:100A0000C093D1018091D001813009F07CC0109257
:100A1000D0010E946B026B017C018091D101809317
:100A2000BB008091F8019091F901A091FA01B09179
:100A3000FB01892B8A2B8B2B99F00E946B02009172
:100A4000F8011091F9012091FA013091FB016C1924
:100A50007D098E099F090617170728073907E0F156
:100A60008091BC0083FDD9CF85EC8093BC000E94AF
:100A70006B026B017C018091F601823009F445C064
:100A80008091F4018F3F61F18091F401803241F156
:100A90008091F40125C08091F8019091F901A09115
:100AA000FA01B091FB01892B8A2B8B2B09F48ACF99
:100AB0000E946B020091F8011091F9012091FA0156
:100AC0003091FB016C197D098E099F0906171707E4
:100AD0002807390708F076CF8091F7010E941904A2
:100AE00010922802109227021092FC01DF91CF9100
:100AF0001F910F91FF90EF90DF90CF9008959D91FF
:100B000091938F5F75CF85EEB0CF8091F801909172
:100B1000F901A091FA01B091FB01892B8A2B8B2B53
:100B200009F4A9CF0E946B020091F8011091F9011C
:100B30002091FA013091FB016C197D098E099F0902
:100B4000061717072807390708F095CFC5CF90E09B
:100B500080E00895CF92DF92EF92FF92CF930E94B0
:100B6000C202882341F08091E7028C3009F457C01B
:100B700038F48B30F1F060E070E080EC9FE741C02A
:100B800085518230C0F7C091E3026C2F70E0762F60
:100B9000662766277F778091E402682B90E080E0EB
:100BA0000E94A40C2DEC3CEC4CEC5DE30E94370D54
:100BB00052C06091E30270E090E080E00E94A40CDB
:100BC0006B017C01C091E402C7FF0AC0AC019B012C
:100BD00060E070E080E89FEB0E94010C6B017C01FB
:100BE000CF706C2F70E090E080E00E94A60C2DEC9E
:100BF0003CEC4CEC5DE30E94370DA70196010E948E
:100C0000020C609330027093310280933202909311
:100C10003302CF91FF90EF90DF90CF900895C09175
:100C2000E3026C2F70E090E080E00E94A40C6B0166
:100C30007C016091E4026F7070E090E080E00E94BF
:100C4000A60C2DEC3CEC4CEC5DE30E94370DA701AB
:100C500096010E94020CC7FFD4CF9058D2CF8F923A
:100C60009F92AF92BF920F931F93CF93DF93CDB715
:100C7000DEB7A1970FB6F894DEBF0FBECDBF19A2A5
:100C8000423008F44AE08E010F5D1F4F842E912CF4
:100C9000B12CA12CA50194010E94CD0DE62FB90124
:100CA000CA01EA3044F5E05DD801EE938D01232BB3
:100CB000242B252B79F790E080E0109769F0FD0157
:100CC00001900020E9F73197AF014A1B5B0BBD0192
:100CD00084EF92E00E94D600A1960FB6F894DEBF92
:100CE0000FBECDBFDF91CF911F910F91BF90AF90FD
:100CF0009F908F900895E95CD7CFFC010190002070
:100D0000E9F73197AF01481B590BBC0184EF92E022
:100D10000C94D6000F931F93CF938C01C62F0E9483
:100D2000C0046C2F6460C8010E94C0046C2F6B7FEC
:100D3000C8010E94C00483EC90E00197F1F7CF91C5
:100D40001F910F9108950F931F93CF93DF938C0101
:100D5000D62FC42F607F642B0E948A0680E1D89F23
:100D6000B00111246C2BC801DF91CF911F910F911D
:100D70000C948A06CF93DF93CDB7DEB728970FB6D2
:100D8000F894DEBF0FBECDBF98E0E0E1F1E0DE01F8
:100D9000119601900D929A95E1F79091FC029617A9
:100DA00010F46FEF690F262F30E0220F331F41E060
:100DB00050E04C0F5D1F240F351FF9016081680F53
:100DC000606840E084EF92E028960FB6F894DEBFAA
:100DD0000FBECDBFDF91CF910C94A30641E00E94DE
:100DE000A30681E090E0089585ED8093BC0080919A
:100DF000F8019091F901A091FA01B091FB010796D9
:100E0000A11DB11D23E0B695A795979587952A95C5
:100E1000D1F72091BC0024FD03C01092F601089583
:100E20004091F8015091F9016091FA017091FB0134
:100E3000452B462B472B69F30097A105B10541F0DF
:100E400025E32A95F1F700000197A109B109E1CF47
:100E50008091F7010C9419041F920F920FB60F9214
:100E600011242F933F934F935F936F937F938F93AF
:100E70009F93AF93BF93EF93FF9388E392E00E9419
:100E80005401FF91EF91BF91AF919F918F917F910D
:100E90006F915F914F913F912F910F900FBE0F90E7
:100EA0001F9018951F920F920FB60F9211242F9337
:100EB0008F939F93EF93FF93E0914802F091490243
:100EC0008081E0914E02F0914F0282FD1BC0908123
:100ED000809151028F5F8F7320915202821741F0EF
:100EE000E0915102F0E0E85CFD4F958F8093510254
:100EF000FF91EF919F918F912F910F900FBE0F90C7
:100F00001F9018958081F4CF1F920F920FB60F9209
:100F100011242F933F938F939F93AF93BF9380910F
:100F2000340290913502A0913602B091370230918F
:100F30001E0223E0230F2D3758F50196A11DB11D88
:100F400020931E028093340290933502A0933602C0
:100F5000B093370280911F0290912002A09121024C
:100F6000B09122020196A11DB11D80931F029093A2
:100F70002002A0932102B0932202BF91AF919F91D2
:100F80008F913F912F910F900FBE0F901F9018954A
:100F900026E8230F0296A11DB11DD2CF1F920F92FA
:100FA0000FB60F9211242F933F934F935F936F933C
:100FB0007F938F939F93AF93BF93EF93FF93E091B2
:100FC0000201F09103010995FF91EF91BF91AF915B
:100FD0009F918F917F916F915F914F913F912F9151
:100FE0000F900FBE0F901F9018951F920F920FB683
:100FF0000F9211242F933F934F935F936F937F939F
:101000008F939F93AF93BF93EF93FF93E091000172
:10101000F09101010995FF91EF91BF91AF919F91DF
:101020008F917F916F915F914F913F912F910F9091
:101030000FBE0F901F9018951F920F920FB60F9230
:1010400011242F933F934F935F936F937F938F93CD
:101050009F93AF93BF93EF93FF93E0910C01F091B7
:101060000D010995FF91EF91BF91AF919F918F91E4
:101070007F916F915F914F913F912F910F900FBE94
:101080000F901F9018951F920F920FB60F92112478
:101090002F933F934F935F936F937F938F939F9380
:1010A000AF93BF93EF93FF938091B900887F803611
:1010B00009F44AC0F0F5883209F4A7C018F5803168
:1010C00009F49BC0B8F4882309F4F9C0883009F406
:1010D00094C0FF91EF91BF91AF919F918F917F91BC
:1010E0006F915F914F913F912F910F900FBE0F9095
:1010F0001F901895883109F488C0803251F7809389
:10110000F40114C0803409F49DC040F48033B9F375
:101110008833F9F68093F40185ECB0C0803509F48A
:1011200085C0883509F496C0883499F60E94F40683
:10113000D0CF883909F48CC038F5883729F050F4BD
:10114000883611F0803729F683E08093F6011092FB
:10115000CF0157C0883809F47BC0803919F0803836
:1011600009F0B7CF8091CF01803208F071C0E091D3
:10117000CF0181E08E0F8093CF018091BB00F0E022
:10118000E155FE4F80833DC0803B39F0E0F4803A6A
:1011900009F479C0883A09F09CCF84E08093F60185
:1011A0001092AE011092AD01E0912502F09126025D
:1011B00009958091AD0181110FC081E08093AD014F
:1011C00010928D0109C0803C09F4A6CF883C09F437
:1011D000A3CF883B09F07DCFE091AE0181E08E0F77
:1011E0008093AE01F0E0E357FE4F80818093BB0017
:1011F0009091AE018091AD0129C08091D101809381
:10120000BB0085EC8093BC0064CF9091F30180918A
:10121000F201981758F5E091F30181E08E0F809369
:10122000F301F0E0EE52FE4F8081E9CFE091F3014F
:1012300081E08E0F8093F3018091BB00F0E0EE52CD
:10124000FE4F80839091F3018091F2019817C8F2CC
:1012500085E8D8CFE091F30181E08E0F8093F30110
:101260008091BB00F0E0EE52FE4F80838091F5014B
:1012700081115CCF81E08093D00184EA8093BC002F
:101280001092F60126CF85EC8093BC001092F601F7
:101290008091CF01803230F4E091CF01F0E0E15550
:1012A000FE4F10826091CF0170E0E0912302F09137
:1012B00024028FEA91E009951092CF010ACF109293
:1012C000F40134CFE8E3F2E01382128288EE93E077
:1012D000A0E0B0E084839583A683B7832CE131E05E
:1012E0003183208325EC30E03587248724EC30E0FF
:1012F0003787268720EC30E0318B208B21EC30E0E3
:10130000338B228B22EC30E0358B248B26EC30E0C3
:10131000378B268B118E128E138E148EE5EDF2E034
:101320001382128284839583A683B7838EE291E031
:1013300091838083E4EFF2E01382128280E491E0F3
:101340009183808387E2848380E1818784E0828740
:101350001386A1EEB2E082E015968C9315978BE090
:1013600016968C931697E0EBF0E0E4911796EC93C9
:101370001797ECE9F0E0E4911896EC93189740E8A1
:101380005EE360E070E01D964D935D936D937C93FA
:1013900050970895789484B5826084BD84B5816047
:1013A00084BD85B5826085BD85B5816085BD809130
:1013B0006E00816080936E001092810080918100A8
:1013C00082608093810080918100816080938100A0
:1013D000809180008160809380008091B100846062
:1013E0008093B1008091B00081608093B0008091C3
:1013F0007A00846080937A0080917A008260809382
:101400007A0080917A00816080937A0080917A00DE
:10141000806880937A001092C10061E087E00E94AA
:101420002F0261E08DE00E942F0261E088E00E94BF
:101430002F0261E088E00E94E30161E089E00E9400
:101440002F0261E089E00E94E30160E083E00E94F6
:101450002F0261E087E00E94E301E0914802F091F1
:10146000490282E08083E0914402F09145021082BB
:10147000E0914602F09147028FEC80831092500277
:10148000E0914C02F0914D0286E08083E0914A02A7
:10149000F0914B02808180618083E0914A02F0915B
:1014A0004B02808188608083E0914A02F0914B0278
:1014B000808180688083E0914A02F0914B028081B4
:1014C0008F7D808380E1809381001092800080E492
:1014D0009CE9909387008093860081E1809381004E
:1014E0008AEA95E090930D0180930C0181E080934E
:1014F0006F0084EC90E0909303018093020180914F
:101500006900837F846080936900E99A10922A02BF
:101510001092290210922802109227020E94FB03C7
:1015200084ED90E0909326028093250285ED90E073
:1015300090932402809323021092F9028091FE027C
:10154000823018F098E09093F9028093FC0262E3F5
:1015500070E080E090E00E9490026091FF0284EFD2
:1015600092E00E94C00468EE73E080E090E00E9488
:10157000900260E384EF92E00E948A06CBE4D6E416
:10158000CE010197F1F760E384EF92E00E948A06B2
:101590002197F1F760E384EF92E00E948A0683E5E9
:1015A00092E00197F1F760E284EF92E00E948A06F0
:1015B0006091F902606240E084EF92E00E94A3062D
:1015C00084E08093FA0240E06CE084EF92E00E94B5
:1015D000A30640E061E084EF92E00E94A306CBE323
:1015E000DFE1CE010197F1F782E08093FB0240E05A
:1015F00066E084EF92E00E94A30640E062E084EFA0
:1016000092E00E94A3062197F1F788E08093FF0201
:1016100060E084EF92E00E94C00460E080E00E94FD
:10162000BA0688E491E00E947D0661E083E00E94B2
:10163000BA0683E591E00E947D0663E081E00E94A6
:10164000BA0680E691E00E947D0640E068E484EFFF
:1016500092E00E94A306C4E0D1E00CE011E06991A1
:1016600084EF92E00E94EE060C171D07C1F762E0BE
:101670008091E6020E942F022FB7F89480913402E5
:1016800090913502A0913602B09137022FBF805D54
:101690009740A109B1098093EA029093EB02A093CD
:1016A000EC02B093ED0287E38093F302C0E0D0E058
:1016B00060910F0187E00E94E30180910E01882371
:1016C00089F08091300290913102A0913202B09164
:1016D000330280932C0290932D02A0932E02B0939C
:1016E0002F0215C080912B02882309F47CC08091C1
:1016F0002C0290912D02A0912E02B0912F02809386
:10170000300290933102A0933202B0933302C09022
:101710003002D0903102E0903202F0903302A70103
:101720009601C701B6010E94A40D811151C060E06D
:101730008AE00E94BA0620E030E0A901C701B601A4
:101740000E94320D20E030E040E05FE387FD4EC0B4
:10175000C701B6010E94020C0E946E0C6B017C0155
:101760004AE0F7FE0EC041E06DE284EF92E00E9495
:10177000A30666277727CB016C197D098E099F097F
:101780004AE00E942F0687E691E00E947D0661E014
:1017900084EF92E00E94EE0689E691E00E947D06C9
:1017A00020E030E046E152E460912C0270912D027D
:1017B00080912E0290912F020E94320D60E0181647
:1017C000D4F489E00E94E30161E088E00E94E30133
:1017D000209709F46DCF0E944001882309F468CF57
:1017E0000E94000065CF0E94AA056BCFC701B60119
:1017F0000E94010CB1CF88E00E94E30161E089E022
:10180000E5CF5058BB27AA270E94190C0C94F80C5E
:101810000E94EA0C38F00E94F10C20F039F49F3F4E
:1018200019F426F40C94E70C0EF4E095E7FB0C9405
:10183000E10CE92F0E94090D58F3BA1762077307EC
:101840008407950720F079F4A6F50C942B0D0EF47F
:10185000E0950B2EBA2FA02D0B01B90190010C01C0
:10186000CA01A0011124FF27591B99F0593F50F4D8
:10187000503E68F11A16F040A22F232F342F442730
:10188000585FF3CF469537952795A795F040539528
:10189000C9F77EF41F16BA0B620B730B840BBAF0F8
:1018A0009150A1F0FF0FBB1F661F771F881FC2F763
:1018B0000EC0BA0F621F731F841F48F48795779577
:1018C0006795B795F7959E3F08F0B0CF9395880F31
:1018D00008F09927EE0F9795879508950E94750C4B
:1018E0006894B1110C942C0D08950E94110D88F08C
:1018F0009F5798F0B92F9927B751B0F0E1F0660FD4
:10190000771F881F991F1AF0BA95C9F714C0B13014
:1019100091F00E942B0DB1E008950C942B0D672FD0
:10192000782F8827B85F39F0B93FCCF38695779543
:101930006795B395D9F73EF490958095709561952C
:101940007F4F8F4F9F4F0895E89409C097FB3EF457
:1019500090958095709561957F4F8F4F9F4F9923FC
:10196000A9F0F92F96E9BB279395F695879577957A
:101970006795B795F111F8CFFAF4BB0F11F460FF3A
:101980001BC06F5F7F4F8F4F9F4F16C0882311F092
:1019900096E911C0772321F09EE8872F762F05C0A6
:1019A000662371F096E8862F70E060E02AF09A9541
:1019B000660F771F881FDAF7880F9695879597F936
:1019C000089597F99F6780E870E060E008959FEFC1
:1019D00080EC089500240A941616170618060906C6
:1019E000089500240A941216130614060506089595
:1019F000092E0394000C11F4882352F0BB0F40F41D
:101A0000BF2B11F460FF04C06F5F7F4F8F4F9F4F5C
:101A1000089557FD9058440F551F59F05F3F71F0DE
:101A20004795880F97FB991F61F09F3F79F0879545
:101A30000895121613061406551FF2CF4695F1DFCE
:101A400008C0161617061806991FF1CF869571055E
:101A5000610508940895E894BB2766277727CB0192
:101A600097F908950E94A90D08F48FEF08950E9438
:101A70004A0D0C94F80C0E94EA0C38F00E94F10C0C
:101A800020F0952311F00C94E10C0C94E70C112438
:101A90000C942C0D0E94090D70F3959FC1F3950FC6
:101AA00050E0551F629FF001729FBB27F00DB11DE2
:101AB000639FAA27F00DB11DAA1F649F6627B00D72
:101AC000A11D661F829F2227B00DA11D621F739F5B
:101AD000B00DA11D621F839FA00D611D221F749F69
:101AE0003327A00D611D231F849F600D211D822FB0
:101AF000762F6A2F11249F5750409AF0F1F08823D7
:101B00004AF0EE0FFF1FBB1F661F771F881F915003
:101B10005040A9F79E3F510580F00C94E10C0C94C5
:101B20002C0D5F3FE4F3983ED4F386957795679547
:101B3000B795F795E7959F5FC1F7FE2B880F911D2D
:101B40009695879597F908950E94A90D880B990B92
:101B50000895990F0008550FAA0BE0E8FEEF16163E
:101B60001706E807F907C0F012161306E407F50791
:101B700098F0621B730B840B950B39F40A2661F005
:101B8000232B242B252B21F408950A2609F4A140A8
:101B9000A6958FEF811D811D0895A1E21A2EAA1B23
:101BA000BB1BFD010DC0AA1FBB1FEE1FFF1FA2170D
:101BB000B307E407F50720F0A21BB30BE40BF50B0A
:101BC000661F771F881F991F1A9469F76095709593
:101BD000809590959B01AC01BD01CF010895EE0F5A
:0E1BE000FF1F0590F491E02D0994F894FFCFBB
:101BEE00D103D1030E0A0E0000000000D303010141
:101BFE000000400014005400000000007601D600E2
:101C0E000301C301340112012601000000009104FA
:101C1E006404A7053A045D044A043B040000000076
:101C2E00EE06D600A705D2034E6869657420646F70
:101C3E003A200062616920746170206C6F6E200022
:0C1C4E00206E686F6D2032200043000003
:00000001FF
